0029029070999991901010106004+64333+023450FM-12+000599999V0202701N015919999999N0000001N9-00781+99999102001ADDGF108991999999999999999999
0029029070999991901010113004+64333+023450FM-12+000599999V0202901N008219999999N0000001N9-00721+99999102001ADDGF104991999999999999999999
0029029070999991901010120004+64333+023450FM-12+000599999V0209991C000019999999N0000001N9-00941+99999102001ADDGF108991999999999999999999
0029029070999991901010206004+64333+023450FM-12+000599999V0201801N008219999999N0000001N9+99991+99999101831ADDGF108991999999999999999999
0029029070999991901010213004+64333+023450FM-12+000599999V0201801N009819999999N0000001N9-00562+99999101761ADDGF108991999999999999999999